S01700004763634170706C69636174696F6E322E737265635A
S11300000C9434000C9451000C9451000C94510045
S11300100C9451000C9451000C9451000C94510018
S11300200C9451000C9451000C9451000C94510008
S11300300C9451000C9451000C9451000C945100F8
S11300400C9451000C9451000C94AA010C9451008E
S11300500C9451000C9451000C9451000C945100D8
S11300600C9451000C94510011241FBECFEFD8E022
S1130070DEBFCDBF11E0A0E0B1E0ECEBF3E002C0E5
S113008005900D92A431B107D9F721E0A4E1B1E0C4
S113009001C01D92A932B207E1F70E9453000C94EB
S11300A0DC010C940000F89478940E945E010E9494
S11300B0DC000E94F2000E943001D2E0CFEF0F2E4C
S11300C0F6ECCF2EF02D0F2EFCECDF2EF02D0F2EA4
S11300D0F2EDEF2EF02D0F2EF8EDFF2EF02D01E0B6
S11300E013E080911401813009F45DC038F082304E
S11300F009F45CC0833009F45CC0F5CFC0931501EA
S113010061E070E085E191E00E947D01C0921501FB
S113011061E070E085E191E00E947D01C0931501EA
S11301208FE39CE90197F1F700C0000061E070E003
S113013085E191E00E947D01D092150161E070E0BB
S113014085E191E00E947D01C09315018FE39CE954
S11301500197F1F700C0000061E070E085E191E0F3
S11301600E947D01E092150161E070E085E191E07B
S11301700E947D01C09315018FE39CE90197F1F77B
S113018000C0000061E070E085E191E00E947D0123
S1130190F092150161E070E085E191E00E947D013B
S11301A0009314019ECFD09314019BCF109314019C
S11301B098CFD093140195CF8FE284B92A9A81E520
S11301C08CBD089528982A988EBD0DB407FEFDCFE6
S11301D02A9A0895289A2A988EBD0DB407FEFDCF59
S11301E02A9A0895299A8FE19EE40197F1F700C0B5
S11301F0000029988FE39CE90197F1F700C0000003
S1130200299A8FEA0E94E2009FEF21EE84E0915048
S113021020408040E1F700C0000010921A01E0E0A5
S1130220F0E0E050FF4F80810E94E200E0911A016B
S1130230EF5FE0931A01E43198F30895CF93C82F48
S113024082958F7080618E5F0E94E2008C2F8F7088
S11302500E94E200CF910895806B0E94E20008950D
S11302601F93CF93DF9310E0812F0E942C0180E035
S11302700E941E01C0E8D0E080E00E94EA002197BD
S1130280D9F71F5F183081F7DF91CF911F9108953F
S11302900F931F93CF93DF9382E00E942C01CBE155
S11302A0D1E002E211E089910E94EA00C017D1076F
S11302B0D1F7DF91CF911F910F910895E4E6F0E01B
S11302C080818D7F808382E08093C00082E290E011
S11302D09093C5008093C400E2ECF0E080818360D9
S11302E08083E1ECF0E0808180618083808188609C
S11302F080838081806880830895CF93DF93611524
S1130300710581F0DC019C01260F371FE0ECF0E061
S1130310C6ECD0E0908195FFFDCF9D919883A21704
S1130320B307C1F7CB01DF91CF910895FC0126817A
S113033041E0420F30E0E20FF31F6083F901ED5D0D
S1130340FE4F6083463021F0FC01468380E008952F
S113035082E008951F920F920FB60F9211242F93EB
S11303603F934F935F936F937F938F939F93AF9339
S1130370BF93EF93FF936091C6008BE191E00E94DD
S1130380960180931601823031F4EBE1F1E016829C
S113039017820E944801FF91EF91BF91AF919F9105
S11303A08F917F916F915F914F913F912F910F901A
S10F03B00FBE0F901F901895F894FFCF1B
S11303BCD580A82FD3008D14A6A4A0C8DA12818FDF
S10703CCD9F1DB4044
S9030000FC
